:020000040800F2
:1000000000000220C17500086574000873740008C0
:10001000797400087F7400088574000800000000EF
:100020000000000000000000000000008B740008C9
:100030009974000800000000A7740008B574000857
:100040001176000811760008117600081176000874
:100050001176000811760008117600081176000864
:100060001176000811760008117600081176000854
:100070001176000811760008117600081176000844
:100080001176000811760008117600081176000834
:100090001176000811760008117600081176000824
:1000A0001176000811760008117600081176000814
:1000B0001176000811760008117600081176000804
:1000C00011760008117600081176000811760008F4
:1000D00011760008117600081176000811760008E4
:1000E00011760008117600081176000811760008D4
:1000F00011760008117600081176000811760008C4
:1001000011760008C1740008117600081176000805
:1001100011760008117600081176000811760008A3
:10012000117600081176000811760008D5740008D1
:100130001176000811760008117600081176000883
:100140001176000811760008117600081176000873
:1001500011760008E974000811760008117600088D
:100160001176000811760008117600081176000853
:1001700011760008117600081176000800000000D2
:08018000117600081176000859
:1001880010B5054C237833B9044B13B10448AFF3C9
:1001980000800123237010BD94000020000000009F
:1001A8001478000808B5034B1BB103490348AFF3A3
:1001B800008008BD000000009800002014780008A6
:1001C80053B94AB9002908BF00281CBF4FF0FF31B6
:1001D8004FF0FF3000F07AB9ADF1080C6DE904CEAC
:1001E80000F006F8DDF804E0DDE9022304B070470A
:1001F8002DE9F0478C460D460446089E002B51D148
:100208008A4217466DD9B2FA82FEBEF1000F0BD0B2
:10021800CEF1200C01FA0EF520FA0CFC02FA0EF7CA
:100228004CEA050C00FA0EF44FEA174A250CBCFB01
:10023800FAF81FFA87F90AFB18CC45EA0C4508FBBF
:1002480009F3AB420AD9ED1908F1FF3280F0238196
:10025800AB4240F22081A8F102083D44ED1AA4B255
:10026800B5FBFAF00AFB105544EA054400FB09F90E
:10027800A14509D9E41900F1FF3380F00A81A145AD
:1002880040F2078102383C44A4EB090440EA0840E4
:100298000021002E61D024FA0EF40023346073602C
:1002A800BDE8F0878B4207D9002E54D0002186E89C
:1002B80021000846BDE8F087B3FA83F1002940F031
:1002C8008E80AB4202D3824200F2FA80841A65EB38
:1002D80003050120AC46002E3FD086E81010BDE88B
:1002E800F08712B90127B7FBF2F7B7FA87FEBEF11C
:1002F800000F34D1EB1B3A0C1FFA87FC0121B3FB2A
:10030800F2F8250C02FB183345EA03450CFB08F309
:10031800AB4207D9ED1908F1FF3002D2AB4200F227
:10032800D1808046ED1AA3B2B5FBF2F002FB10555E
:1003380043EA05440CFB00FCA44507D9E41900F185
:10034800FF3302D2A44500F2B8801846A4EB0C048F
:1003580040EA08409DE731463046BDE8F087CEF1D7
:10036800200405FA0EF307FA0EF720FA04F83A0CFF
:1003780025FA04F448EA0308B4FBF2F14FEA1845F9
:1003880002FB11441FFA87FC45EA044501FB0CF304
:10039800AB4200FA0EF409D9ED1901F1FF3080F0F3
:1003A8008A80AB4240F2878002393D44EB1A1FFA3B
:1003B80088F5B3FBF2F002FB103345EA034500FB76
:1003C8000CF3AB4207D9ED1900F1FF386FD2AB42FD
:1003D8006DD902383D44EB1A40EA01418FE7C1F17B
:1003E800200722FA07F88B4005FA01F448EA0303CC
:1003F80020FA07FE4FEA134CFD404EEA040EB5FB07
:10040800FCF94FEA1E440CFB19551FFA83F844EA1D
:10041800054509FB08F4AC4202FA01F200FA01FAB8
:1004280008D9ED1809F1FF3043D2AC4241D9A9F1FE
:1004380002091D442D1B1FFA8EFEB5FBFCF00CFBB8
:1004480010554EEA054400FB08F8A04507D9E41802
:1004580000F1FF3529D2A04527D902381C4440EACB
:100468000940A4EB0804A0FB02894C45C6464D464A
:1004780015D312D056B1BAEB0E0364EB050404FA97
:1004880007F7CB401F43CC40376074600021BDE8BC
:10049800F0871846F8E69046E0E6C245EAD2B8EB9F
:1004A800020E69EB03050138E4E72846D7E7404622
:1004B80091E78146BEE7014678E702383C4445E7C4
:1004C800084608E7A8F102083D442BE7704700BF3B
:1004D80080B500AF0E4A0E4B1B6843F400731360DF
:1004E8000B4A0B4B1B6843F480631360084A084BA4
:1004F8001B6843F480731360032000F04BF900205D
:1005080000F008F806F082FF0023184680BD00BFFF
:10051800003C024080B582B000AF7860124B1A6888
:10052800124B1B7819464FF47A73B3FBF1F3B2FB05
:10053800F3F3184600F063F90346002B01D00123BA
:100548000EE07B680F2B0AD8002279684FF0FF3045
:1005580000F02BF9064A7B681360002300E00123B2
:1005680018460837BD4680BD2C0000200400002036
:100578000000002080B400AF064B1B781A46064BDB
:100588001B681344044A136000BFBD465DF8047B32
:10059800704700BF04000020F000002080B400AFC6
:1005A800034B1B681846BD465DF8047B704700BFC7
:1005B800F000002080B584B000AF7860FFF7EEFF50
:1005C800B8607B68FB60FB68B3F1FF3F05D0094B5F
:1005D8001B781A46FB681344FB6000BFFFF7DEFF79
:1005E8000246BB68D21AFB689A42F7D300BF10379D
:1005F800BD4680BD0400002080B485B000AF78609F
:100608007B6803F00703FB600C4BDB68BB60BA68D0
:100618004FF6FF031340BB60FB681A02BB68134325
:1006280043F0BF6343F40033BB60044ABB68D36044
:1006380000BF1437BD465DF8047B704700ED00E04D
:1006480080B400AF044BDB681B0A03F007031846AD
:10065800BD465DF8047B704700ED00E080B483B0D0
:1006680000AF0346FB7197F90730002B0BDB0949F4
:1006780097F907305B09FA7902F01F02012000FAA6
:1006880002F241F8232000BF0C37BD465DF8047B19
:10069800704700BF00E100E080B483B000AF0346BC
:1006A8003960FB7197F90730002B0ADB0D4997F980
:1006B80007303A68D2B21201D2B20B4483F8002351
:1006C8000AE00949FB7903F00F03043B3A68D2B208
:1006D8001201D2B20B441A7600BF0C37BD465DF842
:1006E800047B704700E100E000ED00E080B489B0D1
:1006F80000AFF860B9607A60FB6803F00703FB613C
:10070800FB69C3F10703042B28BF0423BB61FB6902
:100718000433062B02D9FB69033B00E000237B610D
:100728000122BB6902FA03F35A1EBB681A407B69AF
:100738009A4001217B6901FA03F3591E7B680B403B
:10074800134318462437BD465DF8047B7047000004
:1007580080B582B000AF78607B68013BB3F1807FE1
:1007680001D301230FE00A4A7B68013B53600F2144
:100778004FF0FF30FFF790FF054B00229A60044BC3
:1007880007221A60002318460837BD4680BD00BFFF
:1007980010E000E080B582B000AF78607868FFF7BD
:1007A8002BFF00BF0837BD4680BD80B586B000AFBF
:1007B8000346B9607A60FB7300237B61FFF740FF53
:1007C80078617A68B9687869FFF790FF024697F907
:1007D8000F3011461846FFF75FFF00BF1837BD46B8
:1007E80080BD80B582B000AF0346FB7197F9073032
:1007F8001846FFF733FF00BF0837BD4680BD80B5F8
:1008080082B000AF78607868FFF7A2FF0346184609
:100818000837BD4680BD000080B586B000AF78605F
:1008280000237B61FFF7BAFE38617B68002B01D19A
:10083800012399E07B68002283F834207B68022238
:1008480083F835207B681B687A681268126822F082
:1008580001021A600FE0FFF7A1FE02463B69D31AB6
:10086800052B08D97B6820225A657B68032283F808
:100878003520032378E07B681B681B6803F00103BD
:10088800002BE8D17B681B681B687B617A69384B51
:1008980013407B617B685A687B689B681A437B6856
:1008A800DB681A437B681B691A437B685B691A43D8
:1008B8007B689B691A437B68DB691A437B681B6A00
:1008C80013437A6913437B617B685B6A042B07D106
:1008D8007B68DA6A7B681B6B13437A6913437B6115
:1008E8007B681B687A691A607B681B685B697B6137
:1008F8007B6923F007037B617B685B6A7A69134332
:100908007B617B685B6A042B17D17B689B6A7A6979
:1009180013437B617B68DB6A002B0ED0786800F09C
:100928000BFA0346002B08D07B6840225A657B6887
:10093800012283F83520012316E07B681B687A6959
:100948005A61786800F0C2F90346FB607B68DB6D8A
:100958003F229A40FB689A607B6800225A657B6850
:10096800012283F83520002318461837BD4680BD7C
:100978003F8010F080B483B000AF78607B6893F854
:100988003530DBB2022B04D07B6880225A65012304
:100998000CE07B68052283F835207B681B687A6841
:1009A8001268126822F001021A60002318460C37F8
:1009B800BD465DF8047B704780B586B000AF7860AF
:1009C8000023BB60924B1B68924AA2FB03239B0A3D
:1009D8007B617B689B6D3B613B691B68FB607B6847
:1009E800DB6D08229A40FB681340002B1AD07B6805
:1009F8001B681B6803F00403002B13D07B681B687B
:100A08007A681268126822F004021A607B68DB6D4B
:100A180008229A403B699A607B685B6D43F001024B
:100A28007B685A657B68DB6D01229A40FB6813403E
:100A3800002B12D07B681B685B6903F08003002BD6
:100A48000BD07B68DB6D01229A403B699A607B681A
:100A58005B6D43F002027B685A657B68DB6D04229C
:100A68009A40FB681340002B12D07B681B681B68F8
:100A780003F00203002B0BD07B68DB6D04229A4045
:100A88003B699A607B685B6D43F004027B685A653A
:100A98007B68DB6D10229A40FB681340002B43D023
:100AA8007B681B681B6803F00803002B3CD07B683D
:100AB800DB6D10229A403B699A607B681B681B6853
:100AC80003F48023002B18D07B681B681B6803F491
:100AD8000023002B08D17B681B6C002B24D07B687B
:100AE8001B6C786898471FE07B689B6C002B1BD0B9
:100AF8007B689B6C7868984716E07B681B681B6866
:100B080003F48073002B07D17B681B687A6812682E
:100B1800126822F008021A607B681B6C002B03D055
:100B28007B681B6C786898477B68DB6D20229A404D
:100B3800FB681340002B00F08E807B681B681B68E5
:100B480003F01003002B00F086807B68DB6D202209
:100B58009A403B699A607B6893F83530DBB2052B85
:100B680036D17B681B687A681268126822F0160210
:100B78001A607B681B687A681268526922F08002E2
:100B88005A617B681B6C002B03D17B689B6C002B24
:100B980007D07B681B687A681268126822F008021E
:100BA8001A607B68DB6D3F229A403B699A607B68DC
:100BB800002283F834207B68012283F835207B6883
:100BC8001B6D002B7DD07B681B6D7868984778E09B
:100BD8007B681B681B6803F48023002B1CD07B6890
:100BE8001B681B6803F40023002B08D17B685B6C2F
:100BF800002B30D07B685B6C786898472BE07B686B
:100C0800DB6B002B27D07B68DB6B7868984722E08A
:100C18002C000020B5814E1B7B681B681B6803F401
:100C28008073002B0FD17B681B687A681268126882
:100C380022F010021A607B68002283F834207B6857
:100C4800012283F835207B68DB6B002B03D07B689F
:100C5800DB6B786898477B685B6D002B32D07B68CC
:100C68005B6D03F00103002B22D07B68052283F81B
:100C780035207B681B687A681268126822F00102C6
:100C88001A60BB680133BB607A69934207D87B68F6
:100C98001B681B6803F00103002BF2D100E000BFC2
:100CA8007B68002283F834207B68012283F8352092
:100CB8007B68DB6C002B05D07B68DB6C7868984719
:100CC80000E000BF1837BD4680BD00BF80B485B0C6
:100CD80000AF78607B681B68DBB2103B144AA2FB4C
:100CE80003231B09FB60134AFB6813441B781A464D
:100CF8007B68DA65FB68032B09D97B681B6823F4DA
:100D08007F7323F003031A1D7B689A6507E07B68ED
:100D18001B6823F47F7323F003037A6893657B6869
:100D28009B6D18461437BD465DF8047B704700BFBD
:100D3800ABAAAAAA8078000880B485B000AF786012
:100D48000023FB737B689B6ABB607B689B69002BF5
:100D58001FD1BB68032B55D801A252F823F000BF5E
:100D6800790D00088B0D0008790D00080D0E00089C
:100D78007B68DB6A03F08073002B45D00123FB738B
:100D880042E07B68DB6AB3F1C07F3FD10123FB738C
:100D98003CE07B689B69B3F5005F21D1BB68032BFE
:100DA80036D801A252F823F0C10D0008C70D00087B
:100DB800C10D0008D90D00080123FB732FE07B68E3
:100DC800DB6A03F08073002B24D00123FB7321E03E
:100DD8007B68DB6AB3F1C07F1ED10123FB731BE084
:100DE800BB68022B02D9032B03D018E00123FB7345
:100DF80015E07B68DB6A03F08073002B0ED00123BB
:100E0800FB730BE000BF0AE000BF08E000BF06E08C
:100E180000BF04E000BF02E000BF00E000BFFB7BB2
:100E280018461437BD465DF8047B704780B489B016
:100E380000AF7860396000237B6100233B610023A9
:100E4800BB610023FB616BE10122FB6902FA03F33A
:100E58007B613B681A687B6913403B613A697B692F
:100E68009A4240F05A813B685B68022B03D03B688A
:100E78005B68122B23D1FB69DA087B68083253F8C8
:100E88002230BB61FB6903F007039B000F2202FAC3
:100E980003F3DB43BA691340BB613B681A69FB691A
:100EA80003F007039B0002FA03F3BA691343BB611B
:100EB800FB69DA087B680832B96943F822107B6855
:100EC8001B68BB61FB695B00032202FA03F3DB4387
:100ED800BA691340BB613B685B6803F00302FB69B6
:100EE8005B0002FA03F3BA691343BB617B68BA6912
:100EF8001A603B685B68012B0BD03B685B68022B70
:100F080007D03B685B68112B03D03B685B68122BEA
:100F180030D17B689B68BB61FB695B00032202FAE6
:100F280003F3DB43BA691340BB613B68DA68FB69CA
:100F38005B0002FA03F3BA691343BB617B68BA69C1
:100F48009A607B685B68BB610122FB6902FA03F364
:100F5800DB43BA691340BB613B685B681B0903F05C
:100F68000102FB6902FA03F3BA691343BB617B68A8
:100F7800BA695A607B68DB68BB61FB695B00032266
:100F880002FA03F3DB43BA691340BB613B689A6812
:100F9800FB695B0002FA03F3BA691343BB617B6820
:100FA800BA69DA603B685B6803F08053002B00F095
:100FB800B4800023FB605F4A5E4B5B6C43F4804364
:100FC80053645C4B5B6C03F48043FB60FB685A4AD8
:100FD800FB699B08023352F82330BB61FB6903F0BD
:100FE80003039B000F2202FA03F3DB43BA691340A1
:100FF800BB617B68514A93422BD07B68504A93422D
:1010080025D07B684F4A93421FD07B684E4A934253
:1010180019D07B684D4A934213D07B684C4A93425F
:101028000DD07B684B4A934207D07B684A4A93426B
:1010380001D107230EE008230CE006230AE005236C
:1010480008E0042306E0032304E0022302E001236E
:1010580000E00023FA6902F0030292009340BA69A3
:101068001343BB613449FB699B080233BA6941F8F1
:1010780023203A4B1B68BB613B69DB43BA691340C9
:10108800BB613B685B6803F48033002B03D0BA690B
:101098003B691343BB61314ABB6913602F4B5B68E3
:1010A800BB613B69DB43BA691340BB613B685B6862
:1010B80003F40033002B03D0BA693B691343BB61C7
:1010C800264ABB695360254B9B68BB613B69DB4380
:1010D800BA691340BB613B685B6803F48013002B5B
:1010E80003D0BA693B691343BB611C4ABB6993606F
:1010F8001A4BDB68BB613B69DB43BA691340BB61D0
:101108003B685B6803F40013002B03D0BA693B69A2
:101118001343BB61114ABB69D360FB690133FB61AF
:10112800FB690F2B7FF690AE00BF2437BD465DF8F4
:10113800047B70470038024000380140000002403C
:101148000004024000080240000C02400010024067
:101158000014024000180240001C0240003C0140FC
:1011680080B586B000AF78607B68002B01D1012381
:101178002DE27B681B6803F00103002B75D0A34B9D
:101188009B6803F00C03042B0CD0A04B9B6803F066
:101198000C03082B12D19D4B5B6803F48003B3F555
:1011A800800F0BD1994B1B6803F40033002B5BD0E5
:1011B8007B685B68002B57D1012308E27B685B687A
:1011C800B3F5803F06D1914A904B1B6843F48033B6
:1011D80013601DE07B685B68B3F5A02F0CD18B4AC8
:1011E8008A4B1B6843F480231360884A874B1B682B
:1011F80043F4803313600BE0844A844B1B6823F468
:1012080080331360814A814B1B6823F48023136069
:101218007B685B68002B13D0FFF7C0F9386108E0E2
:10122800FFF7BCF902463B69D31A642B01D90323A3
:10123800CDE1764B1B6803F40033002BF0D014E0AB
:10124800FFF7ACF9386108E0FFF7A8F902463B69F7
:10125800D31A642B01D90323B9E16C4B1B6803F43F
:101268000033002BF0D100E000BF7B681B6803F05F
:101278000203002B63D0654B9B6803F00C03002B23
:101288000BD0624B9B6803F00C03082B1CD15F4BFF
:101298005B6803F48003002B16D15C4B1B6803F0DA
:1012A8000203002B05D07B68DB68012B01D00123EA
:1012B8008DE15649554B1B6823F0F8027B681B6982
:1012C800DB0013430B603AE07B68DB68002B20D01F
:1012D8004F4B01221A60FFF761F9386108E0FFF708
:1012E8005DF902463B69D31A022B01D903236EE14B
:1012F800464B1B6803F00203002BF0D04349434BD5
:101308001B6823F0F8027B681B69DB0013430B6042
:1013180015E03F4B00221A60FFF740F9386108E0FA
:10132800FFF73CF902463B69D31A022B01D9032384
:101338004DE1364B1B6803F00203002BF0D17B68AC
:101348001B6803F00803002B30D07B685B69002B17
:1013580016D0304B01221A60FFF720F9386108E0F7
:10136800FFF71CF902463B69D31A022B01D9032364
:101378002DE1264B5B6F03F00203002BF0D015E044
:10138800244B00221A60FFF709F9386108E0FFF7DB
:1013980005F902463B69D31A022B01D9032316E14A
:1013A8001A4B5B6F03F00203002BF0D17B681B68BC
:1013B80003F00403002B00F0A0800023FB75134BFF
:1013C8001B6C03F08053002B0FD10023FB600F4AE6
:1013D8000E4B1B6C43F0805313640C4B1B6C03F0D7
:1013E8008053FB60FB680123FB750B4B1B6803F400
:1013F8008073002B21D1084A074B1B6843F4807384
:101408001360FFF7CBF8386111E000BF00380240E5
:1014180000004742800E474200700040FFF7BEF8C8
:1014280002463B69D31A022B01D90323CFE06A4B4A
:101438001B6803F48073002BF0D07B689B68012B3A
:1014480006D1664A654B1B6F43F0010313671CE026
:101458007B689B68052B0CD1604A604B1B6F43F07F
:10146800040313675D4A5D4B1B6F43F00103136769
:101478000BE05A4A594B1B6F23F001031367574A75
:10148800564B1B6F23F0040313677B689B68002B84
:1014980015D0FFF783F838610AE0FFF77FF80246B6
:1014A8003B69D31A41F28832934201D903238EE073
:1014B8004A4B1B6F03F00203002BEED014E0FFF73A
:1014C8006DF838610AE0FFF769F802463B69D31AFC
:1014D80041F28832934201D9032378E03F4B1B6FD6
:1014E80003F00203002BEED1FB7D012B05D13B4A13
:1014F8003A4B1B6C23F0805313647B689B69002B69
:1015080064D0364B9B6803F00C03082B5CD07B68D7
:101518009B69022B41D1324B00221A60FFF73EF83B
:10152800386108E0FFF73AF802463B69D31A022B04
:1015380001D903234BE0294B1B6803F00073002BF0
:10154800F0D126497B68DA697B681B6A1A437B6895
:101558005B6A9B011A437B689B6A5B08013B1B041F
:101568001A437B68DB6A1B0613434B601C4B012242
:101578001A60FFF713F8386108E0FFF70FF8024622
:101588003B69D31A022B01D9032320E0134B1B68B4
:1015980003F00073002BF0D018E0114B00221A6002
:1015A800FEF7FCFF386108E0FEF7F8FF02463B69EA
:1015B800D31A022B01D9032309E0084B1B6803F057
:1015C8000073002BF0D101E0012300E0002318464E
:1015D8001837BD4680BD00BF00700040003802408B
:1015E8006000474280B584B000AF786039607B689E
:1015F800002B01D10123CAE0674B1B6803F00F02DF
:101608003B689A420CD2644B3A68D2B21A70624B69
:101618001B6803F00F023B689A4201D00123B6E031
:101628007B681B6803F00203002B20D07B681B68D3
:1016380003F00403002B05D0584A584B9B6843F429
:10164800E05393607B681B6803F00803002B05D008
:10165800524A524B9B6843F4604393604F494F4B47
:101668009B6823F0F0027B689B6813438B607B6860
:101678001B6803F00103002B44D07B685B68012BD7
:1016880007D1464B1B6803F40033002B19D1012303
:101698007DE07B685B68022B03D07B685B68032B6B
:1016A80007D13E4B1B6803F00073002B09D10123BF
:1016B8006DE03A4B1B6803F00203002B01D10123B4
:1016C80065E03649354B9B6823F003027B685B680D
:1016D80013438B60FEF762FFF8600AE0FEF75EFFD7
:1016E8000246FB68D31A41F28832934201D9032398
:1016F8004DE02A4B9B6803F00C027B685B689B00FB
:101708009A42EBD1244B1B6803F00F023B689A42C4
:101718000CD9214B3A68D2B21A701F4B1B6803F0E0
:101728000F023B689A4201D0012330E07B681B68B6
:1017380003F00403002B08D01849184B9B6823F4C6
:10174800E0527B68DB6813438B607B681B6803F09F
:101758000803002B09D01149104B9B6823F4604201
:101768007B681B69DB0013438B6000F01DF80146A2
:101778000A4B9B681B0903F00F03094AD35C21FA43
:1017880003F3084A13600020FEF7C4FE002318463E
:101798001037BD4680BD00BF003C02400038024003
:1017A800642403082C0000202DE9F04F8FB000AF0F
:1017B8000023FB6200237B630023BB6200233B639F
:1017C800624B9B6803F00C03042B07D0082B08D04E
:1017D800002B40F0B2805E4B3B63B1E05D4B3B6356
:1017E800AEE05A4B5B6803F03F03FB62574B5B6804
:1017F80003F48003002B4ED0544B5B689B094FF0D9
:10180800000440F2FF114FF0000201EA030102EA6E
:1018180004020B46144660017862786A40EAD36095
:1018280078625B013B62D7E908345B1A64EB020417
:101838004FEA841949EA93694FEA8318B8EB030819
:1018480069EB04094FEAC903FB61FB6943EA587372
:10185800FB614FEAC803BB61D7E9068918EB0108A9
:1018680049EB02094FEA49237B617B6943EAD85374
:101878007B614FEA48233B61D7E9048940464946E2
:10188800FB6A4FF000041A462346FEF799FC03460C
:101898000C467B6343E02D4B5B689B094FF00004CB
:1018A80040F2FF114FF0000201EA030102EA0402CC
:1018B8000B4614466001F860F86840EAD360F860A7
:1018C8005B01BB60D7E902345B1A64EB0204A60132
:1018D80046EA93669D01ED1A66EB0406F3007B6009
:1018E8007B6843EA55737B60EB003B6097E86000D8
:1018F8006D1846EB02064FEA862B4BEA955B4FEADA
:10190800852A55465E4628463146FB6A4FF0000454
:101918001A462346FEF754FC03460C467B630B4BE2
:101928005B681B0C03F0030301335B00BB627A6B3B
:10193800BB6AB2FBF3F33B6302E0054B3B6300BFBA
:101948003B6B18463C37BD46BDE8F08F0038024077
:101958000024F40000127A0080B582B000AF7860ED
:101968007B68002B01D101231DE07B6893F834309C
:10197800DBB2002B05D17B6800221A77786805F066
:1019880055FC7B68032283F83420786800F010F84F
:101998007B6800229A637B6800221A637B680122B5
:1019A80083F83420002318460837BD4680BD000060
:1019B800B0B58EB004AF786000237B620023FB6073
:1019C80000233B6100237B610023BB610023FB6193
:1019D80076233B627B681D686C4607F1180393E821
:1019E800070084E8070007F10C030ECB284601F036
:1019F8006AFB1C4B00221A607B681B68184601F0C2
:101A0800ABFB184B01221A600220FEF7D3FD786861
:101A180001F0D7F878627B6A002B0BD07B68012233
:101A280083F834207B689A6B7B6A1A437B689A63D5
:101A3800012313E0786800F0FBFF78627B6A002BD3
:101A48000BD07B68012283F834207B689A6B7B6A11
:101A58001A437B689A63012300E00023184628375D
:101A6800BD46B0BDA080254290B58FB000AFF860EC
:101A7800B9607A603B6000237B63FEF78FFDB86234
:101A880000233B63BB68FB62BB68002B07D1FB6884
:101A98009B6B43F00062FB689A63012377E1FB6864
:101AA80093F83430DBB2012B40F06A81FB680022E6
:101AB8009A637A683B681A44FB68DB6D9A4207D9D7
:101AC800FB689B6B43F00072FB689A6301235EE13D
:101AD800FB68032283F83420FB681B680022DA6263
:101AE800FB685B6C012B02D07B685B027B60FB6848
:101AF8001B684FF40071184601F0C2FB78637B6BDA
:101B0800002B10D0FB681B6840F2FF529A63FB68F9
:101B18009A6B7B6B1A43FB689A63FB68012283F814
:101B28003420012333E14FF0FF333B613B685B0214
:101B38007B619023BB610223FB6100233B6201238D
:101B48007B62FB681B6807F110021146184601F01A
:101B58006BFB3B68012B0AD9FB6802221A63FB68FE
:101B68001B687968184601F0D3FB786309E0FB68C5
:101B780001221A63FB681B687968184601F0A4FB08
:101B880078637B6B002B4AD0FB681B6840F2FF52DE
:101B98009A63FB689A6B7B6B1A43FB689A63FB68D2
:101BA800012283F834200123F1E0FB681B685B6B9A
:101BB80003F40043002B16D000233B630DE03B6B7E
:101BC8009B00FA6AD418FB681B68184601F0A6FA4D
:101BD800034623603B6B01333B633B6B072BEED91A
:101BE800FB6A2033FB62BB6C002B07D0FEF7D6FCE8
:101BF8000246BB6AD21ABB6C9A4210D3FB681B68B8
:101C080040F2FF529A63FB689B6B43F00042FB680B
:101C18009A63FB68012283F834200323B7E0FB684A
:101C28001B685A6B40F22A331340002BBDD0FB6867
:101C38001B685B6B03F48073002B20D03B68012B7F
:101C48001DD9FB685B6C032B19D0FB681B68184611
:101C580001F0CAFB78637B6B002B10D0FB681B6814
:101C680040F2FF529A63FB689A6B7B6B1A43FB68DE
:101C78009A63FB68012283F83420012387E0FB681C
:101C88001B685B6B03F00803002B10D0FB681B6814
:101C980040F2FF529A63FB689B6B43F00802FB68B3
:101CA8009A63FB68012283F8342001236FE0FB6804
:101CB8001B685B6B03F00203002B10D0FB681B68EA
:101CC80040F2FF529A63FB689B6B43F00202FB6889
:101CD8009A63FB68012283F83420012357E0FB68EC
:101CE8001B685B6B03F02003002B37D0FB681B6875
:101CF80040F2FF529A63FB689B6B43F02002FB683B
:101D08009A63FB68012283F8342001233FE0FB68D3
:101D18001B68184601F002FA0246FB6A1A60FB6A61
:101D28000433FB62BB6C002B07D0FEF737FC02467E
:101D3800BB6AD21ABB6C9A4210D3FB681B6840F28C
:101D4800FF529A63FB689B6B43F00042FB689A63FF
:101D5800FB68012283F83420012318E0FB681B6824
:101D68005B6B03F40013002BD1D1FB681B6840F2B6
:101D7800FF529A63FB68012283F83420002306E0AF
:101D8800FB689B6B43F00052FB689A63012318467B
:101D98003C37BD4690BD80B58EB000AFF860B960E5
:101DA8007A603B6000237B63FEF7F8FBB862002390
:101DB8003B63BB68FB62BB68002B07D1FB689B6B6E
:101DC80043F00062FB689A63012348E1FB6893F8DB
:101DD8003430DBB2012B40F03B81FB6800229A6370
:101DE8007A683B681A44FB68DB6D9A4207D9FB683E
:101DF8009B6B43F00072FB689A6301232FE1FB6839
:101E0800032283F83420FB681B680022DA62FB682F
:101E18005B6C012B02D07B685B027B60FB681B68F4
:101E28004FF40071184601F02BFA78637B6B002B96
:101E380010D0FB681B6840F2FF529A63FB689A6BEC
:101E48007B6B1A43FB689A63FB68012283F8342092
:101E5800012304E13B68012B0AD9FB6820221A639D
:101E6800FB681B687968184601F09AFA786309E0FC
:101E7800FB6810221A63FB681B687968184601F032
:101E88006BFA78637B6B002B10D0FB681B6840F201
:101E9800FF529A63FB689A6B7B6B1A43FB689A63E1
:101EA800FB68012283F834200123D8E04FF0FF3388
:101EB8003B613B685B027B619023BB610023FB6154
:101EC80000233B6201237B62FB681B6807F1100259
:101ED8001146184601F0A8F937E0FB681B685B6BF0
:101EE80003F48043002B14D000233B630BE0FB6812
:101EF80018683B6B9B00FA6A1344194601F01BF9FA
:101F08003B6B01333B633B6B072BF0D9FB6A2033F8
:101F1800FB623B6C002B07D0FEF740FB0246BB6A16
:101F2800D21A3B6C9A4210D3FB681B6840F2FF52EE
:101F38009A63FB689A6B7B6B1A43FB689A63FB682E
:101F4800012283F83420032389E0FB681B685A6B5D
:101F580040F21A331340002BBFD0FB681B685B6B41
:101F680003F48073002B20D03B68012B1DD9FB683C
:101F78005B6C032B19D0FB681B68184601F034FA18
:101F880078637B6B002B10D0FB681B6840F2FF5214
:101F98009A63FB689A6B7B6B1A43FB689A63FB68CE
:101FA800012283F83420012359E0FB681B685B6B2E
:101FB80003F00803002B10D0FB681B6840F2FF52A7
:101FC8009A63FB689B6B43F00802FB689A63FB68A3
:101FD800012283F83420012341E0FB681B685B6B16
:101FE80003F00203002B10D0FB681B6840F2FF527D
:101FF8009A63FB689B6B43F00202FB689A63FB6879
:10200800012283F83420012329E0FB681B685B6BFD
:1020180003F01003002B10D0FB681B6840F2FF523E
:102028009A63FB689B6B43F01002FB689A63FB683A
:10203800012283F83420012311E0FB681B6840F279
:10204800FF529A63FB68012283F83420002306E0DC
:10205800FB689B6B43F00052FB689A6301231846A8
:102068003837BD4680BD000080B584B000AF7860C9
:102078000023FB607B681B685B6B03F48073002B99
:1020880000F08D807B681B684FF480729A637B68D0
:102098001A687B681B68DB6B23F44E7323F002031A
:1020A800D3637B681B6B03F00803002B3AD07B6873
:1020B8001B6B03F00203002B05D17B681B6B03F03D
:1020C8002003002B11D07B681B68184601F08CF99F
:1020D800F860FB68002B08D07B689A6BFB681A4392
:1020E8007B689A63786800F025F97B681B6840F282
:1020F800FF529A637B68012283F834207B681B6B4C
:1021080003F00103002B05D17B681B6B03F002036E
:10211800002B03D0786804F0FFFD03E1786804F031
:10212800F1FDFFE07B681B6B03F08003002B00F0E0
:10213800F9807B681B6B03F02003002B11D07B68B0
:102148001B68184601F050F9F860FB68002B08D0AE
:102158007B689A6BFB681A437B689A63786800F01F
:10216800E9F87B681B6B03F00103002B40F0DA8071
:102178007B681B6B03F00203002B40F0D3807B6865
:102188001B687A681268D26A22F00802DA627B68F1
:10219800012283F83420786804F0B4FDC2E07B683B
:1021A8001B685B6B03F48043002B08D07B681B68BB
:1021B8004FF480429A63786800F05FFFB2E07B6872
:1021C8001B685B6B03F40043002B08D07B681B681B
:1021D8004FF400429A63786800F027FFA2E07B681A
:1021E8001B685A6B40F23A231340002B00F09A8088
:1021F8007B681B685B6B03F00203002B05D07B68D0
:102208009B6B43F002027B689A637B681B685B6B7D
:1022180003F00803002B05D07B689B6B43F0080292
:102228007B689A637B681B685B6B03F02003002B59
:1022380005D07B689B6B43F020027B689A637B68C0
:102248001B685B6B03F01003002B05D07B689B6B4E
:1022580043F010027B689A637B681B685B6B03F42E
:102268000073002B05D07B689B6B43F008027B68EA
:102278009A637B681B6840F2FF729A637B681A68EE
:102288007B681B68DB6B23F44E7323F00203D36374
:102298007B681B6B03F08003002B36D07B681B6CBC
:1022A800002B11D07B681B6C204A1A657B681B6C5D
:1022B8001846FEF75FFB0346002B33D07B681B6C88
:1022C800184600F039FB2DE07B68DB6B002B11D042
:1022D8007B68DB6B164A1A657B68DB6B1846FEF772
:1022E80049FB0346002B1DD07B68DB6B184600F0CA
:1022F80061FB17E07B6800229A637B68012283F800
:102308003420786804F0F4FC0CE07B681B6B03F065
:102318000803002B06D07B68012283F834207868F4
:1023280000F008F800BF1037BD4680BD41290008FD
:10233800BD29000880B483B000AF786000BF0C37B7
:10234800BD465DF8047B704790B484B000AF7860F8
:1023580039600023FB607B685B6E1B0EFB60FB68CB
:102368009B09DBB203F00303DAB23B681A70FB681F
:102378009B08DBB203F00F03DAB23B685A70FB68C4
:10238800DBB203F00303DAB23B689A707B685B6EDA
:102398001B0CDBB2FB60FB68DAB23B68DA707B6867
:1023A8005B6E1B0ADBB2FB60FB68DAB23B681A7132
:1023B8007B685B6EDBB2FB60FB68DAB23B685A7124
:1023C8007B689B6E1B0EFB60FB689BB21B019AB27D
:1023D8003B68DA807B689B6E1B0CDBB2FB603B685A
:1023E800DB889AB2FB681B099BB203F00F039BB210
:1023F80013439AB23B68DA80FB68DBB203F00F0341
:10240800DAB23B681A727B689B6E1B0ADBB2FB6010
:10241800FB68DB09DBB203F00103DAB23B685A72EE
:10242800FB689B09DBB203F00103DAB23B689A72DE
:10243800FB685B09DBB203F00103DAB23B68DA72CE
:10244800FB681B09DBB203F00103DAB23B681A73BD
:102458003B6800225A737B685B6C002B40F08680D7
:10246800FB689B0203F440623B681A617B689B6EC1
:10247800DBB2FB603B681A69FB689B001A433B6848
:102488001A617B68DB6E1B0EDBB2FB603B681A6966
:10249800FB689B0903F003031A433B681A61FB6856
:1024A800DB08DBB203F00703DAB23B681A75FB6896
:1024B800DBB203F00703DAB23B685A757B68DB6E60
:1024C8001B0CDBB2FB60FB685B09DBB203F00703A4
:1024D800DAB23B689A75FB689B08DBB203F0070326
:1024E800DAB23B68DA75FB68DBB25B00DBB203F09B
:1024F8000603DAB23B681A767B68DB6E1B0ADBB22E
:10250800FB603B681B7EDAB2FB68DB09DBB203F0D9
:102518000103DBB21343DAB23B681A763B681B69E6
:102528005A1C7B685A653B681B7EDBB2023301226A
:102538009A407B685B6D02FB03F27B685A653B68D7
:102548001B7ADBB21A46012303FA02F27B689A650A
:102558007B685B6D7A68926D520A02FB03F27B68B6
:10256800DA657B684FF400721A6651E07B685B6C31
:10257800012B3CD17B689B6EDBB2FB60FB681B04C4
:1025880003F47C123B681A617B68DB6E1B0EDBB2BE
:10259800FB603B681A69FB681B021A433B681A61B7
:1025A8007B68DB6E1B0CDBB2FB603B681A69FB685F
:1025B8001A433B681A617B68DB6E1B0ADBB2FB605F
:1025C8003B681B694FF00004013344F100049A0290
:1025D8007B685A657B685A6D7B68DA657B684FF45F
:1025E80000729A657B689A6D7B681A6610E07B6852
:1025F8001B6840F2FF529A637B689B6B43F08052E2
:102608007B689A637B68012283F834200123C1E048
:10261800FB689B09DBB203F00103DAB23B685A7628
:10262800FB68DBB25B00DBB203F07E03DAB23B6827
:102638009A767B68DB6EDBB2FB603B689B7EDAB226
:10264800FB68DB09DBB203F00103DBB21343DAB248
:102658003B689A76FB68DBB203F07F03DAB23B682B
:10266800DA767B681B6F1B0EDBB2FB60FB68DB094D
:10267800DBB203F00103DAB23B681A77FB685B0947
:10268800DBB203F00303DAB23B685A77FB689B08B6
:10269800DBB203F00703DAB23B689A77FB68DBB278
:1026A8009B00DBB203F00C03DAB23B68DA777B6895
:1026B8001B6F1B0CDBB2FB603B68DB7FDAB2FB688D
:1026C8009B09DBB203F00303DBB21343DAB23B68C6
:1026D800DA77FB685B09DBB203F00103DAB23B6827
:1026E80083F820203B68002283F82120FB68DBB2B6
:1026F80003F00103DAB23B6883F822207B681B6F82
:102708001B0ADBB2FB60FB68DB09DBB203F00103E9
:10271800DAB23B6883F82320FB689B09DBB203F03D
:102728000103DAB23B6883F82420FB685B09DBB25B
:1027380003F00103DAB23B6883F82520FB681B0924
:10274800DBB203F00103DAB23B6883F82620FB68AA
:102758009B08DBB203F00303DAB23B6883F8272057
:10276800FB68DBB203F00303DAB23B6883F8282086
:102778007B681B6FDBB2FB60FB685B08DBB203F0B6
:102788007F03DAB23B6883F829203B68012283F88B
:102798002A20002318461037BD4690BC704780B4E5
:1027A80083B000AF786039607B685A6C3B681A6008
:1027B8007B689A6C3B685A607B68DA6C3B689A6005
:1027C8007B681A6D3B68DA607B685A6D3B681A61F2
:1027D8007B689A6D3B685A617B68DA6D3B689A61E1
:1027E8007B681A6E3B68DA61002318460C37BD46D1
:1027F8005DF8047B7047B0B58EB004AF786039607F
:1028080000237B627B68032283F834207B685B6C3F
:10281800032B2ED03B68B3F5805F06D17B689B6B9A
:1028280043F080527B689A6329E03B68B3F5006FF8
:102838000AD1786800F097FA78627B689A6B7B6AAD
:102848001A437B689A631AE03B68002B0AD17868C0
:1028580000F0D6FA78627B689A6B7B6A1A437B68C9
:102868009A630CE07B689B6B43F000627B689A6319
:1028780005E07B689B6B43F080527B689A637B68BA
:102888009B6B002B0AD07B681B6840F2FF529A634F
:102898007B68012283F83420012324E07B685B688D
:1028A800FB607B689B683B617B68DB687B613B689E
:1028B800BB617B685B69FB617B689B693B627B688A
:1028C8001D686C4607F1180393E8070084E80700C1
:1028D80007F10C030ECB284600F0F5FB7B680122BC
:1028E80083F83420002318462837BD46B0BD80B58C
:1028F80086B000AF78600423FB7500233B6100239A
:10290800FB6007F10C031946786800F002FA386199
:102918003B69002B05D07B689A6B3B691A437B683F
:102928009A63FB685B0ADBB203F00F03FB75FB7D60
:1029380018461837BD4680BD80B584B000AF7860B2
:102948007B689B6BFB60FB681B6C002B02D0FB68F1
:1029580000221A64FB68DB6B002B27D1F868FFF7AD
:10296800C6FF0346FB72FB6800229A63FB680122DC
:1029780083F83420FB7A062B02D0FB7A052B15D17D
:10298800FB681B68184600F02FFD0246FB689B6B2E
:102998001A43FB689A63FB689B6B002B03D0F868AB
:1029A80004F0A6F902E0F868FFF7C4FC00BF10378E
:1029B800BD4680BD80B584B000AF78607B689B6BF6
:1029C800FB60FB68DB6B002B02D0FB680022DA633C
:1029D800FB681B6C002B27D1F868FFF788FF0346BC
:1029E800FB72FB6800229A63FB68012283F834209B
:1029F800FB7A062B02D0FB7A052B15D1FB681B68E6
:102A0800184600F0F1FC0246FB689B6B1A43FB6812
:102A18009A63FB689B6B002B03D0F86804F068F995
:102A280002E0F868FFF786FC00BF1037BD4680BD9E
:102A3800B0B594B004AF78600023FB630123FB8139
:102A48007B681B68184600F095FB0346002B02D1F3
:102A58004FF08063B1E07B685B6C032B2FD07B6801
:102A68001B68184600F0DAFDF863FB6B002B01D0F9
:102A7800FB6BA2E07B681B680021184600F0BFFBD7
:102A880002467B685A677B681B680421184600F079
:102A9800B6FB02467B689A677B681B680821184664
:102AA80000F0ADFB02467B68DA677B681B680C2187
:102AB800184600F0A4FB02467B68C3F880207B68B8
:102AC8005B6C032B0DD07B681B6807F10E02114667
:102AD800184600F0E4FDF863FB6B002B01D0FB6B9C
:102AE8006BE07B685B6C032B36D0FB891A467B68EE
:102AF8001A657B681A687B681B6D1B0419461046AB
:102B080000F0ACFDF863FB6B002B01D0FB6B54E0CD
:102B18007B681B680021184600F071FB02467B6841
:102B28005A667B681B680421184600F068FB024659
:102B38007B689A667B681B680821184600F05FFB73
:102B480002467B68DA667B681B680C21184600F031
:102B580056FB02467B681A677B681B680421184687
:102B680000F04DFB03461A0D7B68DA6407F1100389
:102B780019467868FFF7E8FB7B6819687B681B6D66
:102B88001B044FF000041A462346084600F050FC88
:102B9800F863FB6B002B01D0FB6B0EE07B681D68B4
:102BA8007B686C4603F1100207CA84E80700043307
:102BB8000ECB284600F087FA002318464037BD465A
:102BC800B0BD80B586B000AF78600023BB6000233D
:102BD8007B6100233B610023FB607B681B68184610
:102BE80000F04BFCF860FB68002B01D0FB688CE020
:102BF8007B681B68184600F060FCF860FB68002BD7
:102C08003DD07B6800229A6432E0BB685A1CBA60E7
:102C18004FF6FF72934202D14FF0807375E07B68E4
:102C28001B680021184600F069FCF860FB68002B5F
:102C380002D04FF0805368E07B681B68002118467B
:102C480000F080FCF860FB68002B02D04FF0805346
:102C58005BE07B681B680021184600F0D0FA7861B9
:102C68007B69DB0F012B01D1012300E000233B61CD
:102C78003B69002BC9D07B6800225A6444E07B681A
:102C880001229A6431E0BB685A1CBA604FF6FF72A1
:102C9800934202D14FF0807337E07B681B680021B4
:102CA800184600F02BFCF860FB68002B01D0FB688D
:102CB8002BE07B681B684FF08041184600F042FC0F
:102CC800F860FB68002B01D0FB681EE07B681B687E
:102CD8000021184600F093FA78617B69DB0F012B1D
:102CE80001D1012300E000233B613B69002BCAD0DE
:102CF8007B6903F08043002B03D07B6801225A6470
:102D080002E07B6800225A64002318461837BD4643
:102D180080BD80B584B000AF786039600023FB6067
:102D28003B68002B02D14FF0006318E07B681A68FB
:102D38007B681B6D1B041946104600F0D3FCF86035
:102D4800FB68002B01D0FB6809E07B681B68002149
:102D5800184600F054FA02463B681A6000231846E9
:102D68001037BD4680BD80B586B000AF78600023BF
:102D7800FB6000233B6100237B617B681B680021AB
:102D8800184600F03CFA034603F00073B3F1007FE5
:102D980002D14FF400632FE007F10C03194678685D
:102DA80000F07BF878617B69002B01D07B6923E018
:102DB8003B6903F48023002B1CD07B681A687B686E
:102DC8001B6D1B041946104600F098FB78617B695F
:102DD800002B01D07B690FE07B681B680221184635
:102DE80000F0D5FB78617B69002B01D07B6903E09B
:102DF800002301E04FF0806318461837BD4680BDB8
:102E080080B586B000AF78600023FB6000233B618B
:102E180000237B617B681B680021184600F0EFF9EE
:102E2800034603F00073B3F1007F02D14FF400634F
:102E38002FE007F10C031946786800F02EF8786146
:102E48007B69002B01D07B6923E03B6903F4803365
:102E5800002B1CD07B681A687B681B6D1B04194605
:102E6800104600F04BFB78617B69002B01D07B6931
:102E78000FE07B681B680021184600F088FB78612A
:102E88007B69002B01D07B6903E0002301E04FF050
:102E9800806318461837BD4680BD90B58FB000AF27
:102EA8007860396000233B63FDF778FBF862002304
:102EB8007B630023FB6000233B617B681B68082160
:102EC800184600F0DDF938633B6B002B01D03B6BF3
:102ED800A7E07B681A687B681B6D1B0419461046BF
:102EE80000F00CFB38633B6B002B01D03B6B98E088
:102EF8004FF0FF337B610823BB613023FB61022362
:102F08003B6200237B620123BB627B681B6807F17D
:102F180014021146184600F087F97B681B681846AA
:102F280000F059FB38633B6B002B22D03B6B78E0F9
:102F38007B681B685B6B03F40013002B0ED07B6B64
:102F48009B0007F10C02D4187B681B68184600F038
:102F5800E5F8034623607B6B01337B63FDF71EFBBB
:102F68000246FB6AD31AB3F1FF3F02D14FF0004388
:102F780057E07B681B685A6B40F22A431340002BCA
:102F8800D6D07B681B685B6B03F00803002B05D069
:102F98007B681B6808229A63082342E07B681B68E9
:102FA8005B6B03F00203002B05D07B681B680222D1
:102FB8009A63022335E07B681B685B6B03F0200390
:102FC800002B05D07B681B6820229A63202328E009
:102FD8007B681B6840F2FF529A633B680433FA68C7
:102FE8001106FA68120202F47F021143FA68120A03
:102FF80002F47F421143FA68120E0A431A603B69D1
:103008001A063B691B0203F47F031A433B691B0A38
:1030180003F47F431A433B691B0E1A433B681A604B
:10302800002318463C37BD4690BD90B585B000AF2B
:1030380078600023FB607B689B6ABB600023FB60B1
:103048000DE0FB689B00BA68D4187B681B681846BB
:1030580000F064F803462360FB680133FB60FB68FB
:10306800072BEED97B689B6A03F120027B689A6282
:10307800002318461437BD4690BD80B584B000AF14
:1030880078600023FB607B681B6ABB600023FB60E1
:103098000BE07B681868FB689B00BA681344194604
:1030A80000F049F8FB680133FB60FB68072BF0D997
:1030B8007B681B6A03F120027B681A6200231846AA
:1030C8001037BD4680BD84B080B485B000AF78604D
:1030D80007F11C0080E80E000023FB60FA693B6AD8
:1030E8001A437B6A1A43BB6A1A43FB6A1A433B6B4F
:1030F8001343FA681343FB607B685B6823F4FD4362
:1031080023F07F03FA681A437B685A600023184645
:103118001437BD465DF8047B04B0704780B483B0B3
:1031280000AF78607B68D3F8803018460C37BD460E
:103138005DF8047B704780B483B000AF7860396075
:103148003B681A687B68C3F88020002318460C3750
:10315800BD465DF8047B704780B483B000AF7860EB
:103168007B6803221A60002318460C37BD465DF8B9
:10317800047B704780B483B000AF78607B681B68BD
:1031880003F0030318460C37BD465DF8047B70470F
:1031980080B485B000AF786039600023FB603B687D
:1031A8001A687B689A603B685A683B689B681A4350
:1031B8003B68DB681A433B681B691343FA6813438F
:1031C800FB607B68DB6823F47F6323F00F03FA68F6
:1031D8001A437B68DA60002318461437BD465DF849
:1031E800047B704780B483B000AF78607B681B694C
:1031F800DBB218460C37BD465DF8047B704780B4D7
:1032080085B000AF786039600023FB607B681433B9
:103218001A463B681344FB60FB681B681846143762
:10322800BD465DF8047B704780B485B000AF786018
:1032380039600023FB603B681A687B685A623B6808
:103248005A687B689A623B689A683B68DB681A43ED
:103258003B681B691A433B685B691343FA6813436D
:10326800FB607B68DB6A23F0F702FB681A437B6824
:10327800DA62002318461437BD465DF8047B7047B0
:1032880080B588B000AF786039600023FB613B6887
:10329800BB601023FB6040233B6100237B614FF43C
:1032A8008063BB6107F1080319467868FFF770FF70
:1032B80041F288321021786800F062FAF861FB69FF
:1032C80018462037BD4680BD80B588B000AF78600D
:1032D80039600023FB613B68BB601123FB6040231E
:1032E8003B6100237B614FF48063BB6107F10803F6
:1032F80019467868FFF74CFF41F288321121786847
:1033080000F03EFAF861FB6918462037BD4680BDDB
:1033180080B588B000AF786039600023FB613B68F6
:10332800BB601223FB6040233B6100237B614FF4A9
:103338008063BB6107F1080319467868FFF728FF27
:1033480041F288321221786800F01AFAF861FB69B4
:1033580018462037BD4680BD80B588B000AF78607C
:1033680039600023FB613B68BB601823FB60402386
:103378003B6100237B614FF48063BB6107F1080365
:1033880019467868FFF704FF41F2883218217868F7
:1033980000F0F6F9F861FB6918462037BD4680BD94
:1033A80080B588B000AF786039600023FB613B6866
:1033B800BB601923FB6040233B6100237B614FF412
:1033C8008063BB6107F1080319467868FFF7E0FEE0
:1033D80041F288321921786800F0D2F9F861FB6966
:1033E80018462037BD4680BD80B588B000AF7860EC
:1033F8000023FB610023BB600C23FB6040233B617F
:1034080000237B614FF48063BB6107F10803194611
:103418007868FFF7BDFE054A0C21786800F0B0F91E
:10342800F861FB6918462037BD4680BD00E1F50507
:1034380080B58AB000AFF860C7E9002300237B623B
:103448003B683B6107237B614023BB610023FB6131
:103458004FF480633B6207F110031946F868FFF7E1
:1034680097FE41F288320721F86800F089F97862FE
:103478007B6A18462837BD4680BD80B588B000AF46
:1034880078600023FB610023BB600023FB600023FE
:103498003B6100237B614FF48063BB6107F1080344
:1034A80019467868FFF774FE786800F03FF9F8610C
:1034B800FB6918462037BD4680BD80B588B000AF8F
:1034C80078600023FB614FF4D573BB600823FB6071
:1034D80040233B6100237B614FF48063BB6107F1AC
:1034E800080319467868FFF753FE786800F010FB68
:1034F800F861FB6918462037BD4680BD80B588B0A5
:1035080000AF786039600023FB613B68BB603723FC
:10351800FB6040233B6100237B614FF48063BB6108
:1035280007F1080319467868FFF732FE41F288323E
:103538003721786800F024F9F861FB6918462037CC
:10354800BD4680BD80B588B000AF78603960002383
:10355800FB613B6843F0004343F48013BB602923BD
:10356800FB6040233B6100237B614FF48063BB61B8
:1035780007F1080319467868FFF70AFE786800F033
:1035880025FAF861FB6918462037BD4680BD80B52D
:1035980088B000AF786039600023FB613B68BB608E
:1035A8000623FB6040233B6100237B614FF480636B
:1035B800BB6107F1080319467868FFF7E9FD41F296
:1035C80088320621786800F0DBF8F861FB69184654
:1035D8002037BD4680BD80B588B000AF7860002335
:1035E800FB610023BB603323FB6040233B61002366
:1035F8007B614FF48063BB6107F108031946786863
:10360800FFF7C6FD41F288323321786800F0B8F838
:10361800F861FB6918462037BD4680BD80B588B083
:1036280000AF78600023FB610023BB600223FB60CE
:10363800C0233B6100237B614FF48063BB6107F1CA
:10364800080319467868FFF7A3FD786800F07EF94B
:10365800F861FB6918462037BD4680BD80B588B043
:1036680000AF786039600023FB613B68BB600923C9
:10367800FB60C0233B6100237B614FF48063BB6127
:1036880007F1080319467868FFF782FD786800F0AB
:103698005DF9F861FB6918462037BD4680BD80B5E5
:1036A80088B000AF786039600023FB610023BB60FD
:1036B8000323FB6040233B6100237B614FF480635D
:1036C800BB6107F1080319467868FFF761FD3A689E
:1036D8000321786800F0AEF9F861FB6918462037D5
:1036E800BD4680BD80B588B000AF786039600023E2
:1036F800FB613B68BB600D23FB6040233B610023FB
:103708007B614FF48063BB6107F108031946786851
:10371800FFF73EFD41F288320D21786800F030F85D
:10372800F861FB6918462037BD4680BD90B482B069
:1037380000AF7860104B1B68104AA2FB03235B0A9A
:1037480041F2883202FB03F423465C1E002B02D1AF
:103758004FF000430AE07B685B6B03F08003002BAB
:10376800F2D07B6840F2FF529A630023184608376C
:10377800BD4690BC704700BF2C000020D34D62109E
:1037880090B587B000AFF8600B467A60FB726C4B5F
:103798001B686C4AA2FB03235B0A7A6802FB03F4EA
:1037A80023465C1E002B02D14FF00043C3E0FB68A8
:1037B8005B6B03F04503002BF2D0FB685B6B03F0F7
:1037C8000403002B04D0FB6804229A630423B2E0AC
:1037D800FB685B6B03F00103002B04D0FB6801223C
:1037E8009A630123A7E0F868FFF7FCFC03461A4632
:1037F800FB7A934201D001239DE0FB6840F2FF521F
:103808009A630021F868FFF7FAFC78617A694E4BF1
:103818001340002B01D100238DE07B69002B02DAD5
:103828004FF0007387E07B6903F08043002B01D0E1
:10383800402380E07B6903F00053002B01D08023F4
:1038480079E07B6903F08053002B02D04FF480733A
:1038580071E07B6903F00063002B02D04FF4007322
:1038680069E07B6903F08063002B02D04FF480632A
:1038780061E07B6903F08073002B02D04FF4006392
:1038880059E07B6903F40003002B02D04FF4805306
:1038980051E07B6903F48003002B02D04FF40053FE
:1038A80049E07B6903F40013002B02D04FF48043F6
:1038B80041E07B6903F48013002B02D04FF40043EE
:1038C80039E07B6903F48023002B02D04FF40033E6
:1038D80031E07B6903F40033002B02D04FF48023DE
:1038E80029E07B6903F48033002B02D04FF40023D6
:1038F80021E07B6903F40043002B02D04FF48013CE
:1039080019E07B6903F48043002B02D04FF40013C5
:1039180011E07B6903F40053002B02D04FF48003BD
:1039280009E07B6903F00803002B02D04FF4000381
:1039380001E04FF4803318461C37BD4690BD00BFE8
:103948002C000020D34D621008E0FFFD90B482B037
:1039580000AF78601B4B1B681B4AA2FB03235B0A62
:1039680041F2883202FB03F423465C1E002B02D18D
:103978004FF0004320E07B685B6B03F04503002BAE
:10398800F2D07B685B6B03F00403002B04D07B68E8
:1039980004229A6304230FE07B685B6B03F0010346
:1039A800002B04D07B6801229A63012304E07B6822
:1039B80040F2FF529A63002318460837BD4690BC70
:1039C800704700BF2C000020D34D621090B482B025
:1039D80000AF7860154B1B68154AA2FB03235B0AEE
:1039E80041F2883202FB03F423465C1E002B02D10D
:1039F8004FF0004315E07B685B6B03F04503002B39
:103A0800F2D07B685B6B03F00403002B04D07B6867
:103A180004229A63042304E07B6840F2FF529A630D
:103A2800002318460837BD4690BC70472C0000207C
:103A3800D34D621090B587B000AFF8600B467A603E
:103A4800FB72314B1B68314AA2FB03235B0A41F22C
:103A5800883202FB03F423465C1E002B02D14FF090
:103A680000434CE0FB685B6B03F04503002BF2D08E
:103A7800FB685B6B03F00403002B04D0FB68042293
:103A88009A6304233BE0FB685B6B03F00103002BA4
:103A980004D0FB6801229A63012330E0F868FFF73D
:103AA800A1FB03461A46FB7A934201D0012326E084
:103AB800FB6840F2FF529A630021F868FFF79FFB0A
:103AC80078617B6903F46043002B06D17B691B0C8A
:103AD8009AB27B681A80002311E07B6903F4804363
:103AE800002B02D04FF4005309E07B6903F4004334
:103AF800002B02D04FF4805301E04FF48033184676
:103B08001C37BD4690BD00BF2C000020D34D62106D
:103B180090B482B000AF7860184B1B68184AA2FBBB
:103B280003235B0A41F2883202FB03F423465C1E3E
:103B3800002B02D14FF000431AE07B685B6B03F067
:103B48004503002BF2D07B685B6B03F00403002B6A
:103B580004D07B6840229A63042309E07B685B6B8E
:103B680003F04003002B02D07B6840229A630023B5
:103B780018460837BD4690BC704700BF2C0000208F
:103B8800D34D621080B584B000AF0346FB71FB795A
:103B9800084A9B0013445B685B68FA7905490A4444
:103BA800127A104698470346FB73FB7B184610377A
:103BB800BD4680BDD800002080B584B000AF034664
:103BC800FB710023FB73FB790D4AD35C002B11D1E9
:103BD800FB790B4A0121D154FB79094A9B00134414
:103BE8005B681B68FA7906490A44127A10469847B6
:103BF8000346FB73FB7B18461037BD4680BD00BFEC
:103C0800D800002090B587B000AFB9607A603B60FB
:103C18000346FB73FB7B0A4A9B0013445B689C6862
:103C2800FB7B074A1344187A3B687A68B968A0474F
:103C38000346FB75FB7D18461C37BD4690BD00BF8B
:103C4800D800002090B587B000AFB9607A603B60BB
:103C58000346FB73FB7B0A4A9B0013445B68DC68E2
:103C6800FB7B074A1344187A3B687A68B968A0470F
:103C78000346FB75FB7D18461C37BD4690BD00BF4B
:103C8800D800002080B584B000AF03463A60FB71CD
:103C98000B46BB71FB79094A9B0013445B681B699F
:103CA800FA7906490A44107AB9793A689847034676
:103CB800FB73FB7B18461037BD4680BDD80000203B
:103CC80080B485B000AF78607B6801331B78FB81D6
:103CD800FB891B021AB27B681B781BB213431BB209
:103CE800FB81FB8918461437BD465DF8047B704795
:103CF80080B485B000AF78607B6803331B78FB60C5
:103D0800FB681B027A68023212781343FB60FB6877
:103D18001B027A68013212781343FB60FB681B02AE
:103D28007A6812781343FB60FB6818461437BD465F
:103D38005DF8047B704780B483B000AF78600B46B1
:103D48007B807B685A1C7A607A88D2B21A707B882A
:103D58001B0A7B807B685A1C7A607A88D2B21A70F8
:103D680000BF0C37BD465DF8047B704780B483B054
:103D780000AF786039607B685A1C7A603A68D2B2C2
:103D88001A703B681B0A3B607B685A1C7A603A6869
:103D9800D2B21A703B681B0A3B607B685A1C7A6077
:103DA8003A68D2B21A703B681B0A3B607B685A1C9F
:103DB8007A603A68D2B21A7000BF0C37BD465DF817
:103DC800047B704780B487B000AFF860B9607A6050
:103DD800FB687B61BB683B617B68002B0DD07B690E
:103DE8005A1C7A613A69511C396112781A707B68D9
:103DF800013B7B607B68002BF1D100BF1C37BD46BF
:103E08005DF8047B704780B487B000AFF860B96094
:103E18007A60FB687B617B695A1C7A61BA68D2B2A6
:103E28001A707B68013B7B607B68002BF3D100BF75
:103E38001C37BD465DF8047B704780B489B000AF7D
:103E4800F860B9607A60FB68FB61BB68BB610023FE
:103E58007B61FB695A1CFA611B781946BB695A1CBD
:103E6800BA611B78CB1A7B617B68013B7B607B68FE
:103E7800002B02D07B69002BEBD07B6918462437D6
:103E8800BD465DF8047B704780B483B000AF7860AE
:103E9800396002E07B6801337B607B681B78002B0C
:103EA80005D07B681B781A463B689A42F2D17B683A
:103EB8001B7818460C37BD465DF8047B7047000038
:103EC80080B485B000AF786039600023BB60BB6800
:103ED800FB6029E0274AFB681B0113441B68002B81
:103EE8001DD0244AFB681B0113441A687B681B68B1
:103EF8009A4216D11F4AFB681B01134404331A68FF
:103F08007B689B689A420CD11A4AFB681B011344D0
:103F180008331A687B685B699A4202D107E001237B
:103F2800BB60FB680133FB60FB68012BD2D9FB68DF
:103F3800022B09D1BB68002B02D13B68022B01D1AF
:103F4800002310E012230EE03B68002B08D1094A39
:103F5800FB681B0113440C331B88B3F5807F01D128
:103F6800102300E0002318461437BD465DF8047B93
:103F7800704700BFB800002080B483B000AF0023B2
:103F88007B6002E07B6801337B607B68012B06D88D
:103F9800094A7B681B0113441B68002BF2D17B681C
:103FA800022B14BF01230023DBB218460C37BD4691
:103FB8005DF8047B704700BFB800002080B485B06E
:103FC80000AF786039600023FB601FE0414AFB685E
:103FD8001B0113441A687B681B689A4213D13D4A37
:103FE800FB681B01134404331A687B689B689A4278
:103FF80009D1384AFB681B01134408331A687B68E7
:104008005B699A4206D0FB680133FB60FB68012BB1
:10401800DCD900E000BFFB68022B32D10023FB6033
:1040280002E0FB680133FB60FB68012B06D8294AD4
:10403800FB681B0113441B68002BF2D1FB68022BA1
:1040480001D1002340E07B681A682249FB681B0104
:104058000B441A607B689A681E49FB681B010B4475
:1040680004331A607B685A691A49FB681B010B44C0
:1040780008331A60174AFB681B0113440C330022EB
:104088001A803B68002B09D0124AFB681B011344B5
:104098000C331B88002B01D0002315E03B68002B54
:1040A80008D10C4AFB681B0113440C331B880133ED
:1040B8009AB201E04FF480720649FB681B010B4479
:1040C8000C331A80FB68013318461437BD465DF877
:1040D800047B7047B800002080B485B000AF7860DA
:1040E8007B68013B7B607B68012B25D8174A7B687E
:1040F8001B0113440C331B88FB81FB89B3F5807FBC
:1041080001D10023FB81FB89002B02D0FB89013BF5
:10411800FB810E4A7B681B0113440C33FA891A8011
:10412800FB89002B05D1094A7B681B011344002237
:104138001A6000237B7301E002237B737B7B1846A4
:104148001437BD465DF8047B704700BFB8000020F7
:1041580080B485B000AF78600023FB6010E00D4AA2
:10416800FB681B0113441A687B689A4205D1094A07
:10417800FB681B01134400221A60FB680133FB60D3
:10418800FB68012BEBD900BF1437BD465DF8047BF3
:10419800704700BFB800002080B586B000AF7860D7
:1041A8000023FB737B68DB78002B34D07B681B6BA8
:1041B8007B617B6858787B6803F1340101237A6955
:1041C800FFF740FD0346002B02D00123FB7322E0DA
:1041D8007B680022DA707B685B6A7A69D21A7B682E
:1041E800DB699A4217D27B689B783B6110E07B6859
:1041F800DB697A6913447B617B6858787B6803F1D3
:10420800340101237A69FFF71DFD3B69013B3B61DE
:104218003B69012BEBD8FB7B18461837BD4680BDA0
:1042280080B584B000AF786039600023FB737B6889
:104238001A6B3B689A421BD07868FFF7ADFF0346BC
:10424800FB73FB7B002B13D17B6858787B6803F1E9
:10425800340101233A68FFF7D5FC0346002B04D04C
:104268004FF0FF333B600123FB737B683A681A63A6
:10427800FB7B18461037BD4680BD000080B584B072
:1042880000AF78607868FFF787FF0346FB73FB7B16
:10429800002B58D17B681B78032B48D17B681B798E
:1042A800012B44D17B6834334FF400720021184647
:1042B800FFF7A9FD7B68343303F5FF734AF65521F0
:1042C8001846FFF738FD7B68343321491846FFF755
:1042D8004DFD7B68343303F5F2731E491846FFF72A
:1042E80045FD7B68343303F5F4727B685B691946D6
:1042F8001046FFF73BFD7B68343303F5F6727B68A5
:104308001B6919461046FFF731FD7B681B6A5A1C6A
:104318007B681A637B6858787B6803F134017B6893
:104328001A6B0123FFF78EFC7B6800221A717B68E9
:104338005B78002200211846FFF7A4FC0346002BF7
:1043480001D00123FB73FB7B18461037BD4680BDA7
:10435800525261417272416180B483B000AF78609B
:1043680039603B68023B3B607B689B699A1E3B68EF
:104378009A4201D8002308E07B685B891A463B68AB
:1043880003FB02F27B68DB6A134418460C37BD4610
:104398005DF8047B704780B586B000AF78603960FF
:1043A8007B681B683B613B68012B04D93B699A69B0
:1043B8003B689A4202D801237B618CE04FF0FF33BF
:1043C8007B613B691B78022B45D0032B5DD0012B09
:1043D80077D13B68FB60FB685B08FA681344FB60B5
:1043E8003B695A6AFB685B0A134419463869FFF748
:1043F80017FF0346002B67D1FB685A1CFA60C3F30A
:1044080008033A69134493F83430BB603B695A6A2D
:10441800FB685B0A134419463869FFF701FF034636
:10442800002B53D1FB68C3F308033A69134493F88C
:1044380034301B021A46BB681343BB603B6803F069
:104448000103002B02D0BB681B0902E0BB68C3F361
:104458000B037B613FE03B695A6A3B681B0A1344C4
:1044680019463869FFF7DCFE0346002B30D13B695B
:1044780003F134023B685B0003F4FF7313441846EE
:10448800FFF71EFC03467B6125E03B695A6A3B68DF
:10449800DB09134419463869FFF7C2FE0346002BAF
:1044A80018D13B6903F134023B689B0003F4FE73A7
:1044B80013441846FFF71CFC034623F070437B6146
:1044C80009E001237B6106E000BF04E000BF02E0D1
:1044D80000BF00E000BF7B6918461837BD4680BDA5
:1044E80090B589B000AFF860B9607A600223FB77B5
:1044F800BB68012B40F2D680FB689A69BB689A4278
:1045080040F2D080FB681B78022B73D0032B00F09D
:104518009180012B40F0C680BB68BB61BB695B081A
:10452800BA691344BB61FB685A6ABB695B0A1344E6
:104538001946F868FFF774FE0346FB77FB7F002BEC
:1045480040F0A980FB6803F13402BB69591CB961CA
:10455800C3F3080313447B61BB6803F00103002B1A
:104568000DD07B691B785BB203F00F035AB27B68EE
:10457800DBB21B015BB213435BB2DBB201E07B68C9
:10458800DBB27A691370FB680122DA70FB685A6A39
:10459800BB695B0A13441946F868FFF741FE0346F6
:1045A800FB77FB7F002B78D1FB6803F13402BB69F2
:1045B800C3F3080313447B61BB6803F00103002BBA
:1045C80003D07B681B09DBB20EE07B691B785BB20A
:1045D80023F00F035AB27B681B0A5BB203F00F0388
:1045E8005BB213435BB2DBB27A691370FB680122DA
:1045F800DA7057E0FB685A6ABB681B0A134419460D
:10460800F868FFF70DFE0346FB77FB7F002B46D1CA
:10461800FB6803F13402BB685B0003F4FF731344C7
:104628007A6892B211461846FFF785FBFB680122AB
:10463800DA7037E0FB685A6ABB68DB09134419462D
:10464800F868FFF7EDFD0346FB77FB7F002B28D1C9
:104658007B6823F07044FB6803F13402BB689B005D
:1046680003F4FE7313441846FFF742FB034603F0B6
:10467800704323437B60FB6803F13402BB689B00F3
:1046880003F4FE73134479681846FFF76FFBFB6861
:104698000122DA7006E000BF04E000BF02E000BFBC
:1046A80000E000BFFB7F18462437BD4690BD80B5AB
:1046B80088B000AFF860B9607A600023FB77FB68C8
:1046C8001B68BB61BB68012B04D9BB699A69BB68CD
:1046D8009A4201D802234BE07B68002B0CD04FF0A4
:1046E800FF327968B869FFF7FBFE0346FB77FB7F6B
:1046F800002B01D0FB7F3BE0B968F868FFF74BFE61
:1047080078617B69002B31D07B69012B01D10223B1
:104718002EE07B69B3F1FF3F01D1012328E000229D
:10472800B968B869FFF7DCFE0346FB77FB7F002B0F
:1047380001D0FB7F1CE0BB695A69BB699B69023BDE
:104748009A420BD2BB695B695A1CBB695A61BB6947
:104758001B7943F00103DAB2BB691A717B69BB604C
:10476800BB699A69BB689A42C6D800E000BF0023BB
:1047780018462037BD4680BD80B588B000AF786048
:1047880039607B681B683B613B68002B0DD13B6936
:104798001B69BB61BB69002B04D03B699A69BB6983
:1047A8009A421BD80123BB6118E039687868FFF783
:1047B800F2FDF860FB68012B01D8012370E0FB686B
:1047C800B3F1FF3F01D1FB686AE03B699A69FB6876
:1047D8009A4201D9FB6863E03B68BB61BB69FB6136
:1047E800FB690133FB613B699A69FB699A4207D807
:1047F8000223FB61FA69BB699A4201D900234FE0A1
:10480800F9697868FFF7C7FDF860FB68002B0ED0E0
:10481800FB68012B03D0FB68B3F1FF3F01D1FB68B4
:104828003EE0FA69BB699A42DAD1002338E000BF5A
:104838004FF0FF32F9693869FFF752FE0346FB75FE
:10484800FB7D002B09D13B68002B06D0FA6939683B
:104858003869FFF745FE0346FB75FB7D002B16D133
:104868003B69FA691A613B695A693B699B69023B72
:104878009A4204D83B695B695A1E3B695A613B6995
:104888001B7943F00103DAB23B691A7107E0FB7D3B
:10489800012B02D14FF0FF3300E00123FB61FB69DC
:1048A80018462037BD4680BD80B487B000AF786019
:1048B80039607B681B68FB607B68DB6A04333B619B
:1048C8003B685B0AFA685289B3FBF2F37B613B6988
:1048D8001A1D3A611B68BB60BB68002B01D100231D
:1048E80010E07A69BB689A4207D37A69BB68D31A21
:1048F8007B613B6904333B61E9E700BF3B691A68A8
:104908007B69134418461C37BD465DF8047B704725
:1049180080B586B000AF786039607B681B683B6102
:104928003B68B3F5001F04D23B6803F01F03002B5C
:1049380001D0022363E07B683A685A617B689B6810
:104948007B617B69002B06D13B691B78022B02D95E
:104958003B699B6A7B617B69002B0CD13B685B09D7
:104968003A691289934201D3022348E03B699A6A63
:104978007B68DA6129E03B695B895B02FB6019E0CF
:104988007B6879691846FFF706FD78617B69B3F1A2
:10499800FF3F01D1012332E07B69012B04D93B6938
:1049A8009A697B699A4201D8022328E03A68FB6831
:1049B800D31A3B603A68FB689A42E1D27969386950
:1049C800FFF7CAFC02467B68DA617B687A699A61FC
:1049D8007B68DB69002B01D1022310E07B68DA6970
:1049E8003B685B0A1A447B68DA613B6903F134026D
:1049F8003B68C3F308031A447B681A62002318460D
:104A08001837BD4680BD80B586B000AF7860396084
:104A18007B681B68FB607B685B692033BB607B68D5
:104A2800DB69002B03D0BB68B3F5001F01D3042357
:104A3800AAE0BB68C3F30803002B40F098807B68AA
:104A4800DB695A1C7B68DA617B689B69002B0BD198
:104A5800BB685B09FA6812899342C0F088807B685A
:104A68000022DA6104238FE0BB685B0AFA68528986
:104A7800013A1340002B7AD17A687B689B69194602
:104A88001046FFF788FC78617B69012B01D8022367
:104A98007AE07B69B3F1FF3F01D1012374E0FB6841
:104AA8009A697B699A4258D83B68002B04D17B6885
:104AB8000022DA61042367E07A687B689B691946FB
:104AC8001046FFF759FE78617B69002B01D1072357
:104AD8005AE07B69012B01D1022355E07B69B3F1D0
:104AE800FF3F01D101234FE0F868FFF755FB03466C
:104AF800002B01D0012347E0FB6834334FF40072E8
:104B080000211846FFF77FF900233B617969F868AF
:104B1800FFF722FC0246FB681A6312E0FB680122D9
:104B2800DA70F868FFF738FB0346002B01D0012341
:104B38002AE03B6901333B61FB681B6B5A1CFB682D
:104B48001A63FB685B891A463B699A42E6D8FB6898
:104B58001A6B3B69D21AFB681A637B687A699A6197
:104B68007969F868FFF7F8FB02467B68DA617B68C9
:104B7800BA685A61FB6803F13402BB68C3F30803DF
:104B88001A447B681A62002318461837BD4680BD50
:104B980080B586B000AF786039607B681B68FB60C1
:104BA80000217868FFF7B4FE0346FB75FB7D002BF8
:104BB8002BD100233B617B68DB691946F868FFF756
:104BC8002FFB0346FB75FB7D002B1DD17B681B6A01
:104BD8001B78E52B04D07B681B6A1B78002B07D158
:104BE8003B6901333B613A693B689A4202D10CE068
:104BF80000233B6101217868FFF705FF0346FB7539
:104C0800FB7D002BD7D000E000BFFB7D042B01D13A
:104C18000723FB75FB7D18461837BD4680BD80B558
:104C280084B000AF786039603B681A331846FFF7E4
:104C380047F80346FB607B681B78032B09D13B6868
:104C480014331846FFF73CF803461B04FA6813436D
:104C5800FB60FB6818461037BD4680BD80B584B040
:104C680000AFF860B9607A60BB681A337A6892B2AC
:104C780011461846FFF75FF8FB681B78032B09D12C
:104C8800BB6803F114027B681B0C9BB219461046E3
:104C9800FFF751F800BF1037BD4680BD90B587B00B
:104CA80000AF786039603B681A331846FFF708F898
:104CB8000346002B01D0002359E03B681B7803F022
:104CC8003F035A1E13465B0013449B0013447B6149
:104CD8000123FB8100233B6133E0274A3B691344EE
:104CE8001B781A463B6813441846FEF7E9FF03464B
:104CF800BB81FB89002B1AD07B69FE2B12D8BB899C
:104D0800184601F0D3FE03461C467B695A1C7A619B
:104D18005B007A6813441B88184601F0C7FE0346F7
:104D28009C4201D0002322E0BB89FB8106E0BB89BD
:104D38004FF6FF72934201D0002318E03B6901331C
:104D48003B613B690C2BC8D93B681B7803F04003D7
:104D5800002B0BD0FB89002B08D07B695B007A689D
:104D680013441B88002B01D0002300E001231846C0
:104D78001C37BD4690BD00BF8878000880B588B054
:104D880000AFF860B96011461A460B46FB7113462E
:104D9800BB71BB680D33BA791A70BB680B330F222D
:104DA8001A70BB680C3300221A70BB681A330021D2
:104DB8001846FEF7C0FFFB795A1E13465B001344E2
:104DC8009B001344FB610023FB820023BB61FB8A29
:104DD8004FF6FF72934207D0FB695A1CFA615B00D9
:104DE800FA6813441B88FB82174ABB6913441B7873
:104DF8001A46BB681344FA8A11461846FEF79BFF09
:104E0800FB8A002B02D14FF6FF73FB82BB6901338B
:104E1800BB61BB690C2BDAD9FB8A4FF6FF72934250
:104E280006D0FB695B00FA6813441B88002B03D18A
:104E3800FB7943F04003FB71BB68FA791A7000BF35
:104E48002037BD4680BD00BF8878000880B58CB08B
:104E580000AFF860B9607A603B600B22B968F86807
:104E6800FEF7B0FF3B68052B2BD93B68FB6122E0BE
:104E78007B689A1C7A601B887B840023BB6217E0DE
:104E8800FB695A007B8C03F001031344FB617B8CA4
:104E98005B087B84FB6903F48033002B05D0FB6936
:104EA80083F4883383F02103FB61BB6A0133BB625F
:104EB800BB6A0F2BE4D97B681B88002BD8D1FB6910
:104EC8003B600723BB623B68DBB203F00F03DBB236
:104ED800303387F82F3097F82F30392B04D997F8CB
:104EE8002F30073387F82F30BB6A5A1EBA6207F192
:104EF8003002134497F82F2003F81C2C3B681B0939
:104F08003B603B68002BDED107F11402BB6A1344F7
:104F18007E221A7000237B6217E0FA687B6A1344CA
:104F28001B78802B0ED9FA687B6A13441B78FF2BF9
:104F380008D0BB6A5A1E7B6A9A4200D10FE07B6A8E
:104F480001337B627B6A01337B627A6ABB6A9A426D
:104F580005D2FA687B6A13441B78202BDDD17B6A63
:104F68005A1C7A62FA681A44BB6A072B08D8BB6ACB
:104F7800591CB96207F130010B4413F81C3C00E0DE
:104F8800202313707B6A072BE9D900BF3037BD4651
:104F980080BD80B485B000AF78600023FB730B231D
:104FA800BB60FB7BDAB25208DB011343DAB27B68E1
:104FB800591C79601B781344FB73BB68013BBB60C9
:104FC800BB68002BEDD1FB7B18461437BD465DF856
:104FD800047B704780B586B000AF78607B681B683B
:104FE8003B6100217868FFF793FC0346FB75FB7D66
:104FF800002B01D0FB7DA9E0FF233B753B7D7B7532
:105008007B684FF0FF321A637B68DB6919463869A1
:10501800FFF706F90346FB75FB7D002B40F09080F7
:105028007B681B6A1B78BB75BB7D002B02D10423F0
:10503800FB758AE07B681B6A0B331B7803F03F0320
:10504800FB737B68FA7B9A71BB7DE52B07D0FB7BF2
:1050580003F00803002B09D0FB7B0F2B06D0FF239E
:105068007B757B684FF0FF321A635EE0FB7B0F2B8A
:1050780036D17B6893F82F3003F04003002B54D1CE
:10508800BB7D03F04003002B0DD07B681B6A5B7B64
:105098003B75BB7D23F04003BB75BB7D7B757B688F
:1050A8005A697B681A63BA7D7B7D9A4215D17B6801
:1050B8001B6A0D331B783A7D9A420ED13B69DA6838
:1050C8007B681B6A19461046FFF7E8FD0346002B6C
:1050D80003D07B7D013BDBB200E0FF237B7524E03E
:1050E8007B7D002B09D17B681B6A1846FFF751FFAF
:1050F80003461A463B7D934224D07B6893F82F30B1
:1051080003F00103002B0AD17B68186A7B682433FB
:105118000B221946FEF791FE0346002B14D0FF23FD
:105128007B757B684FF0FF321A6300217868FFF7C0
:105138006AFC0346FB75FB7D002B3FF465AF04E07A
:1051480000BF02E000BF00E000BFFB7D1846183733
:10515800BD4680BD80B58CB000AF78607B681B68A9
:10516800FB617B6893F82F3003F0A003002B01D07C
:105178000623E0E000237B6202E07B6A01337B6266
:10518800FB69DA687B6A5B0013441B88002BF4D147
:105198007B6803F1240107F10C030C221846FEF783
:1051A80011FEFB7D03F00103002B32D07B68402207
:1051B80083F82F200123BB6216E07B6803F12400EB
:1051C800FB69DA6807F10C01BB6AFFF73FFE7868F4
:1051D800FFF700FF034687F82F3097F82F30002B92
:1051E80006D1BB6A0133BB62BB6A632BE5D900E019
:1051F80000BFBB6A642B01D107239CE097F82F30CE
:10520800042B02D097F82F3095E0FA7D7B6883F85D
:105218002F20FB7D03F00203002B07D07B6A0C33A1
:10522800474AA2FB03239B08013300E001233B62AA
:10523800396A7868FFF7ACFC034687F82F3097F88F
:105248002F30002B48D13B6A013B3B623B6A002B65
:1052580042D07B685A693B6A5B01D31A1946786861
:10526800FFF756FB034687F82F3097F82F30002BAF
:1052780032D17B6824331846FFF78BFE0346FB7652
:105288007B68DB691946F869FEF7CAFF034687F8A9
:105298002F3097F82F30002B1DD1FB69D8687B6819
:1052A800196A3B6ADAB2FB7EFFF768FDFB690122E7
:1052B800DA7000217868FFF7A6FB034687F82F30DD
:1052C80097F82F30002B07D13B6A013B3B623B6AC2
:1052D800002BD5D100E000BF97F82F30002B28D144
:1052E8007B68DB691946F869FEF79AFF034687F879
:1052F8002F3097F82F30002B1BD17B681B6A202298
:1053080000211846FEF77FFD7B68186A7B68243306
:105318000B221946FEF756FD7B681B6A0C337A6828
:1053280092F82F2002F01802D2B21A70FB690122FB
:10533800DA7097F82F3018463037BD4680BD00BF69
:105348004FECC44E80B58AB000AF786039603B68D6
:105358001B683B617B681B68DB68FB6000237B6123
:105368007B69BB61BB695A1CBA613A6913441B78F3
:10537800BB84BB8C1F2B6AD9BB8C2F2B06D0BB8C54
:105388005C2B10D102E0BB690133BB613A69BB6990
:1053980013441B782F2BF6D03A69BB6913441B784A
:1053A8005C2BF0D054E07B69FE2B01D90623BFE1CA
:1053B800BB8CDBB2BB84BB8CDBB2802B25D9BB8C0E
:1053C800DBB2FF2B21D0BB695A1CBA613A6913447E
:1053D8001B7887F82730BB8C1B029AB297F82730C6
:1053E8009BB21344BB8497F827303F2B03D997F817
:1053F80027307E2B09D997F92730002B03DA97F845
:105408002730FF2B01D1062392E1BB8C01211846DE
:1054180001F0ECFA0346BB84BB8C002B01D10623B8
:1054280086E1BB8C7F2B09D8BB8C19469A48FEF7BE
:105438002BFD0346002B01D0062379E17B695A1C1A
:105448007A615B00FA681344BA8C1A808AE700BF55
:105458003A69BB691A443B681A60BB8C1F2B01D898
:10546800042300E0002387F8263011E07B6903F16C
:105478000043013B5B00FA6813441B88BB84BB8C68
:10548800202B02D0BB8C2E2B06D17B69013B7B6184
:105498007B69002BEAD100E000BF7B695B00FA68FA
:1054A800134400221A807B69002B01D106233FE1B7
:1054B8007B6824330B2220211846FEF7A4FC002326
:1054C800BB6102E0BB690133BB61BB695B00FA6881
:1054D80013441B88202BF5D0BB695B00FA68134482
:1054E8001B882E2BEED0BB69002B09D097F82630ED
:1054F80043F0030387F8263002E07B69013B7B61B8
:105508007B69002B09D07B6903F10043013B5B00F9
:10551800FA6813441B882E2BEFD1002387F8273015
:1055280000233B620823FB61BB695A1CBA615B001C
:10553800FA6813441B88BB84BB8C002B00F0AA803C
:10554800BB8C202B06D0BB8C2E2B0AD1BA697B6969
:105558009A4206D097F8263043F0030387F826309E
:1055680097E03A6AFB699A4203D2BA697B699A4220
:1055780023D1FB690B2B06D197F8263043F00303A0
:1055880087F826308DE0BA697B699A4205D097F88A
:10559800263043F0030387F82630BA697B699A42BC
:1055A8007ED87B69BB6108233B620B23FB6197F8BC
:1055B80027309B0087F827306BE0BB8C7F2B10D9F6
:1055C800BB8C184601F072FA03460021184601F018
:1055D8000DFA0346BB8497F8263043F0020387F898
:1055E8002630BB8CFF2B1AD9FB695A1E3B6A9A429C
:1055F80008D897F8263043F0030387F82630FB696C
:105608003B6246E03B6A5A1C3A62BA8C120A92B272
:10561800D1B27A6813440A4683F824202FE0BB8C61
:10562800002B07D0BB8C19461C48FEF72DFC0346FF
:10563800002B08D05F23BB8497F8263043F0030380
:1056480087F826301BE0BB8C402B09D9BB8C5A2B22
:1056580006D897F8273043F0020387F827300EE082
:10566800BB8C602B0BD9BB8C7A2B08D897F82730CA
:1056780043F0010387F82730BB8C203BBB843B6A8F
:105688005A1C3A62BA8CD1B27A6813440A4683F833
:10569800242049E700BF04E02C7800083878000887
:1056A80000BF7B6893F82430E52B03D17B68052283
:1056B80083F82420FB69082B04D197F827309B0036
:1056C80087F8273097F8273003F00C030C2B05D008
:1056D80097F8273003F00303032B05D197F82630FA
:1056E80043F0020387F8263097F8263003F00203C8
:1056F800002B17D197F8273003F00303012B05D1AE
:1057080097F8263043F0100387F8263097F82730AB
:1057180003F00C03042B05D197F8263043F0080357
:1057280087F826307B6897F8262083F82F200023F7
:1057380018462837BD4680BD80B586B000AF786072
:1057480039607B683B613B691B68FB6002E03B6832
:1057580001333B603B681B782F2BF8D03B681B78E4
:105768005C2BF4D03B6900229A603B681B781F2BA6
:105778000AD87B68802283F82F2000217868FFF7F9
:10578800C7F80346FB7543E03B4619467868FFF7C0
:10579800D9FD0346FB75FB7D002B34D17868FFF7F4
:1057A80019FC0346FB757B6893F82F30FB72FB7D71
:1057B800002B0AD0FB7D042B27D1FB7A03F00403CE
:1057C800002B22D10523FB751FE0FB7A03F00403AD
:1057D800002B1CD13B699B7903F01003002B02D1ED
:1057E8000523FB7514E0FB6803F134027B685B69F1
:1057F800C3F3080313441946F868FFF710FA024682
:105808003B699A60C0E700BF02E000BF00E000BF4C
:10581800FB7D18461837BD4680BD80B487B000AF01
:1058280078604FF0FF333B617B681B68002B31D0F9
:105838007B681B687B6102E07B6901337B617B6964
:105848001B781F2B03D97B691B783A2BF4D17B6912
:105858001B783A2B1CD17B681B68FB60FB685A1CC1
:10586800FA601B78303BBB60BB68092B0ED8FA681E
:105878007B699A420AD1BB68002B07D1BB683B61A0
:105888007B6901337B617B687A691A603B6902E056
:1058980000233B613B6918461C37BD465DF8047B15
:1058A8007047000080B582B000AF786039607B68CF
:1058B8000022DA707B684FF0FF321A633968786823
:1058C800FEF7AEFC0346002B01D0042338E07B68CA
:1058D800343303F5FF731846FEF7F2F903461A4608
:1058E8004AF655239A4201D0032329E07B6893F8AE
:1058F8003430E92B09D07B6893F83430EB2B1ED178
:105908007B6893F83630902B19D17B683433363363
:105918001846FEF7EDF9034623F07F430A4A9342FF
:1059280001D100230CE07B68343352331846FEF76C
:10593800DFF90246054B9A4201D1002300E0022319
:1059480018460837BD4680BD464154004641543389
:1059580080B596B000AFF860B9601346FB71BB68BC
:1059680000221A60F868FFF758FFF863FB6B002BFA
:1059780001DA0B232EE2A84AFB6B52F82330BB63F3
:10598800BB6B002B01D10C2324E2BB68BA6B1A60F5
:10599800FB7923F00103FB71BB6B1B78002B1AD03A
:1059A800BB6B5B781846FEF7EDF8034687F837308F
:1059B80097F8373003F00103002B0CD1FB79002B4B
:1059C80007D097F8373003F00403002B01D00A23DF
:1059D80000E20023FEE1BB6B00221A70FB6BDAB217
:1059E800BB6B5A70BB6B5B781846FEF7E5F803464D
:1059F80087F8373097F8373003F00103002B01D0D0
:105A08000323E7E1FB79002B07D097F8373003F041
:105A18000403002B01D00A23DCE100233B65396D28
:105A2800B86BFFF73FFF034687F8573097F85730B2
:105A3800022B4BD100233B641FE0BB6B03F1340204
:105A48003B6C1B0103F5DF7313443B633B6B04336F
:105A58001B78002B06D03B6B08331846FEF748F935
:105A6800024600E000223B6C9B0007F158010B4402
:105A780043F8442C3B6C01333B643B6C032BDCD96F
:105A880000233B643B6C002B02D03B6C013B3B6426
:105A98003B6C9B0007F15802134453F8443C3B65A8
:105AA8003B6D002B05D0396DB86BFFF7FBFE034645
:105AB80000E0032387F8573097F85730012B05D9B2
:105AC8003B6C01333B643B6C032BE1D997F85730AF
